:020000040800F2
:100000000817002089010008250B0008F90A0008DC
:10001000210B000809040008E31A00080000000092
:10002000000000000000000000000000B512000801
:100030006504000800000000C90E0008A1130008B4
:10004000A3010008A3010008A3010008A301000800
:10005000A3010008A3010008A3010008A3010008F0
:10006000A3010008A301000815070008A301000868
:10007000A3010008A3010008A3010008A3010008D0
:10008000A3010008A3010008A3010008A3010008C0
:10009000A3010008A3010008A3010008A3010008B0
:1000A000A301000805140008A3010008A30100082B
:1000B00081140008A3010008F9140008A301000836
:1000C000A3010008A3010008A3010008A301000880
:1000D000A30100084D180008A3010008A3010008AF
:1000E000CD060008A3010008A301000800F002F8F3
:1000F00000F03AF80AA090E8000C82448344AAF188
:100100000107DA4501D100F02FF8AFF2090EBAE885
:100110000F0013F0010F18BFFB1A43F0010318473B
:100120007040000090400000103A24BF78C878C1A9
:10013000FAD8520724BF30C830C144BF04680C60ED
:10014000704700000023002400250026103A28BF35
:1001500078C1FBD8520728BF30C148BF0B60704739
:100160001FB51FBD10B510BD00F08EF81146FFF78A
:10017000F7FF03F0F3F900F0ACF803B4FFF7F2FF78
:1001800003BC00F0B1F80000094880470948004767
:10019000FEE7FEE7FEE7FEE7FEE7FEE7FEE7FEE737
:1001A000FEE7FEE704480549054A064B7047000094
:1001B000A5130008ED00000808070020081700201C
:1001C000080F0020080F002010B5203AC0F00B8067
:1001D000B1E81850203AA0E81850B1E81850A0E84B
:1001E0001850BFF4F5AF5FEA027C24BFB1E81850A5
:1001F000A0E8185044BF18C918C0BDE810405FEA15
:10020000827C24BF51F8043B40F8043B08BF704790
:10021000D20728BF31F8023B48BF11F8012B28BF95
:1002200020F8023B48BF00F8012B70474FF0000256
:1002300000B5134694469646203922BFA0E80C50DC
:10024000A0E80C50B1F12001BFF4F7AF090728BFB7
:10025000A0E80C5048BF0CC05DF804EB890028BF33
:1002600040F8042B08BF704748BF20F8022B11F05C
:10027000804F18BF00F8012B7047704770477047D8
:1002800000487047A40600207546FFF7F9FFAE4608
:1002900005006946534620F00700854618B020B592
:1002A000FFF780FFBDE820404FF000064FF0000749
:1002B0004FF000084FF0000B21F00701AC46ACE80E
:1002C000C009ACE8C009ACE8C009ACE8C0098D467B
:1002D000704710B50446AFF300802046BDE81040DB
:1002E000FFF74BBF7047000001491820ABBEFEE787
:1002F000260002000FB438B5099D0024089800902C
:1003000004A80FC800F052FC00BF03F017F9002842
:10031000FBD003F069FC1648006840F02000144947
:10032000086003E00121134801F030F91248007819
:100330000028F7D01148046835B1214604A803F01D
:1003400062F8A4F5485404E0002104A803F05BF827
:1003500000240898009004A80FC800F027FC00BFF4
:1003600003F0ECF80028FBD0204638BC5DF814FB05
:100370000C0C0140000800400C0000200800002088
:1003800070B586B01F48046845688668002003463B
:1003900062420146009001A803F03CF805980090E5
:1003A00001A80FC800F002FC00BF03F0C7F8002846
:1003B000FBD000206B4202460146009001A803F0EA
:1003C00029F80598009001A80FC800F0EFFB00BFC6
:1003D00003F0B4F80028FBD0A6F5484000231A46E5
:1003E0001946009001A803F015F80598009001A89F
:1003F0000FC800F0DBFB00BF03F0A0F80028FBD023
:1004000006B070BD9804002000BFFEE700B587B0BD
:100410004FF4484000231A461946009002A802F003
:10042000F9FF0AA001F006FA0698009002A80FC88A
:1004300000F0BCFB00BF03F081F80028FBD007A050
:1004400001F0F8F903F080FB07B000BD0A436861D2
:100450006E67696E6720746F6F6C00002E2E446F9C
:100460006E6500007047000010B500242348007836
:100470006A2826D008DC612817D0642819D066289D
:1004800023D0682824D122E0752816D0772804D0FC
:10049000782806D079281BD118E0032000F094FCBE
:1004A00024E0022000F090FC20E0002000F08CFC12
:1004B0001CE0012000F088FC18E0042000F084FC1F
:1004C00014E0052000F080FC10E000BF00BF0DE04C
:1004D00000210B4801F05AF800214FF0804001F054
:1004E00055F80021074801F051F800BF00BF03484C
:1004F0000478002001490870204610BD0D0000203E
:10050000002C01400008004030B5ADF2046D00251C
:1005100000245A49002002F073FB012258A15B48D5
:1005200002F084FB5A49087003F00EFB594800683A
:1005300000F40060B0F5006F0BD15548007840B969
:10054000C4EB041105AA02EB4100504A1E2102F03F
:100550002BFB8DE04E4800780028FAD1002409E0FA
:10056000C4EB041105AA02EB4100484A1E2102F027
:100570001BFB641C322CF3DB002475E00DF5BE6020
:1005800002F03AFFC4EB041005AA02EB40016846F2
:1005900002F049FF142269460DF5BE60FFF714FE14
:1005A000DDF8FC05452801D101255FE03A49DDF879
:1005B000FC050860DDF8FC05442811D009DCB0F129
:1005C000FF3F40D000283CD001283BD043283BD1FE
:1005D00012E04D280AD0532814D05A2834D117E0FD
:1005E0002EA001F027F9FFF711FF2EE02DA001F05A
:1005F00021F9FFF70BFF28E02CA001F01BF9FFF712
:1006000005FF22E02BA001F015F9FFF7FFFE1CE02B
:100610002AA001F00FF9002003460246014600908F
:100620000DF5BE6002F0F6FE00200190DDF8000638
:1006300000900DF5BE600FC8FFF75CFE03F084FA72
:1006400003E002E001E000E000BF00BFDDF80006CB
:1006500000900DF5BE600FC800F0A8FA00BF02F0D0
:100660006DFF0028FBD0641C322C87DB00BF002408
:10067000002D3FF46FAF0DF2046D30BD340000204B
:10068000303A2F68636F64652E686300680200204B
:1006900000000020080C0140040000200A204472E1
:1006A000696C6C000A204D696C6C00000A2043756F
:1006B000740000000A20466C697000000A205A206D
:1006C0006C6576656C696E670000000010B54FF4CC
:1006D000004000F041F898B10A48006800F020009E
:1006E00050B1094800685A2806D10021074800F097
:1006F0004DFF0120064908704FF4004000F026F835
:1007000010BD00000C0C0140040000200008004057
:100710000C00002010B5102000F01EF888B1002158
:10072000084800F033FF00214FF0804000F02EFF1A
:100730000021054800F02AFFFFF722FE102000F0FC
:1007400005F810BD002C0140000800400149086078
:100750007047000014040140014600200022074BAE
:100760001B6803EA0102054B14331B680B4013B1ED
:100770000AB1012000E000207047000000040140A1
:10078000002123498279002A3AD00A461268036878
:100790009A430B461A600A1D126803689A430B1DA0
:1007A0001A60027911440A6803681A430A60184AF9
:1007B0000832126803689A43154B08331A601A1DF1
:1007C000126803689A43124B0C331A604279102A5C
:1007D0000ED11A1F126803681A430D4B08331A60B2
:1007E0001A1D126803681A43094B0C331A600DE096
:1007F0000749427911440A6803681A430A6005E010
:10080000027911440A6803689A430A60704700003D
:100810000004014010B500F003FC00F027F900F0DF
:1008200037F900F003F800F005FC10BD1CB50121FC
:10083000114800F0D1F804208DF807004003ADF80E
:10084000040001A90D4800F03BF810208DF80300CA
:100850000002ADF8000003208DF802006946074849
:1008600000F02EF805480C30006820F48050034951
:100870000C3108601CBD000000023000000801407F
:1008800030B500228B071C0F0F2303FA04F20B4B29
:100890008C1053F824309343084C8D1044F82530C5
:1008A00023468C1053F824308C07240F00FA04F4EC
:1008B0002343024C8D1044F8253030BD0800014020
:1008C0002DE9F041024600250026002000230024E7
:1008D000002791F803C00CF00F0591F803C00CF04D
:1008E000100CBCF1000F03D091F802C04CEA0505D2
:1008F00091F800C0BCF1000F31D0146800202BE04B
:100900004FF0010C0CFA00F3B1F800C00CEA03063A
:100910009E4220D183004FF00F0C0CFA03F7BC432A
:1009200005FA03FC4CEA040491F803C0BCF1280F5B
:1009300006D14FF0010C0CFA00FCC2F814C00AE01A
:1009400091F803C0BCF1480F05D14FF0010C0CFA2F
:1009500000FCC2F810C0401C0828D1D31460B1F8C4
:1009600000C0BCF1FF0F34DD546800202EE000F120
:10097000080C4FF0010808FA0CF3B1F800C00CEABB
:1009800003069E4221D183004FF00F0C0CFA03F7AF
:10099000BC4305FA03FC4CEA040491F803C0BCF123
:1009A000280F05D100F1080C08FA0CF8C2F81480E1
:1009B00091F803C0BCF1480F07D100F1080C4FF0CB
:1009C000010808FA0CF8C2F81080401C0828CED3A1
:1009D0005460BDE8F0810000F0B50A460023002411
:1009E0000021002500F00046B6F1004F02D11D4E57
:1009F000F16901E01B4E7168C0F3034583B200F456
:100A00004016B6F5401F08D121F07061154E76688A
:100A100026F07066134F7E6012E000F48016B6F583
:100A2000801F06D1032606FA05F4A14341F0706148
:100A300006E0460D360103FA06F6B14341F0706157
:100A400022B1460D360103FA06F6314300F00046A6
:100A5000B6F1004F02D1034EF16101E0014E716029
:100A6000F0BD0000000001404161704708B504205E
:100A70008DF8030040F60240ADF8000069460248D8
:100A8000FFF71EFF08BD0000000C01400161704728
:100A90001FB548208DF807004FF40040ADF8040062
:100AA00003208DF8060001A91248FFF709FF0F2166
:100AB0000220FFF7E5FE4FF40040029000208DF881
:100AC0000C000C208DF80D0001208DF80E0002A8FE
:100AD000FFF756FE28208DF8000002208DF8010057
:100AE0008DF8020001208DF80300684600F01CF824
:100AF0001FBD00000010014002E002A000F09AFEBD
:100B0000FBE700000A486172644661756C7400007E
:100B100000200249886048600860704798040020FF
:100B200000BFFEE77047000070B5002100230F22D0
:100B3000C47804B3154C246804F4E064C4F5E0649C
:100B4000210AC1F10403CA40447804FA03F184780D
:100B50001440214309010E4C0678A155047804F095
:100B60001F050124AC4005786D11AD0005F1E025AD
:100B7000C5F8004109E0047804F01F050124AC40E9
:100B8000044D0678761145F8264070BD0CED00E066
:100B900000E400E080E100E002490143024A116004
:100BA000704700000000FA050CED00E00FB410B52E
:100BB0000298002806DA2748006820F400402549FA
:100BC000086005E02348006840F4004021490860BF
:100BD0000398002806DA2048006820F002001E4929
:100BE000086005E01C48006840F002001A490860EF
:100BF0000498002806DA1748006840F020001549DC
:100C0000086005E01348006820F0200011490860E2
:100C10000020029902F0FCFE0120039902F0F8FE88
:100C20000220049902F0F4FE029818B101210B4849
:100C300000F0ACFC039818B10121880700F0A6FC75
:100C4000049818B10121064800F0A0FC10BC5DF822
:100C500014FB00000C0C01400C080140002C01406A
:100C60000008004008B518208DF803004FF480708C
:100C7000ADF8000003208DF8020069461548FFF723
:100C80001FFE0120ADF8000069461248FFF718FE6C
:100C90004020ADF8000069460F48FFF711FE142010
:100CA0008DF803004FF40040ADF8000069460A4893
:100CB000FFF706FE0220ADF8000069460548FFF781
:100CC000FFFD2020ADF8000069460348FFF7F8FD5E
:100CD00008BD000000080140000C0140F0B587B0DD
:100CE000472542F210776424661000F0E2F8FFF71F
:100CF000B9FF0020ADF81600ADF81200ADF81050A5
:100D0000ADF814408DF8180004A92D4800F0C0FC7F
:100D100004A9200700F0BCFC04A92A4800F0B8FC94
:100D20006020ADF800000120ADF802000420ADF80D
:100D30000400ADF806600220ADF808000020ADF810
:100D40000A004FF48070ADF80C000020ADF80E00E2
:100D500069461B4800F050FC6946200700F04CFC37
:100D60006946184800F048FC0121154800F01AFCBB
:100D70000121880700F016FC0121124800F012FC46
:100D800001210F4800F0FCFB0121880700F0F8FB6F
:100D900001210C4800F0F4FB01221146084800F044
:100DA00021FC01221146900700F01CFC0122114693
:100DB000044800F017FC00F05BF807B0F0BD00003D
:100DC000002C01400008004010B586B00446062CF7
:100DD0003DD2DFE804F0030D161F2933002003463F
:100DE0004FF4C8620146009001A802F013FB2EE008
:100DF000002003461D4A0146009001A802F00AFBAC
:100E000025E00020194B02460146009001A802F09F
:100E100001FB1CE000204FF4C8630246014600902D
:100E200001A802F0F7FA12E04FF4C86000231A4656
:100E30001946009001A802F0EDFA08E00B480023E3
:100E40001A461946009001A802F0E4FA00BF00BF5C
:100E50000598009001A80FC8FFF7A8FE00BF02F098
:100E60006DFB0028FBD006B010BD0000C0F9FFFFED
:100E700008B519208DF8000001208DF801008DF8CB
:100E800002008DF803006846FFF74EFE1C208DF827
:100E9000000002208DF802006846FFF745FE1E2084
:100EA0008DF8000003208DF802006846FFF73CFE35
:100EB00008BD10B5012140F60D0000F027F8012112
:100EC000052000F003F810BD7047000029B1064A64
:100ED000D2690243044BDA6104E0034AD2698243D7
:100EE000014BDA61704700000010024029B1064A48
:100EF00012690243044B1A6104E0034A12698243F7
:100F0000014B1A61704700000010024029B1064AE7
:100F100092690243044B9A6104E0034A9269824356
:100F2000014B9A61704700000010024029B1064A47
:100F3000D2680243044BDA6004E0034AD268824379
:100F4000014BDA60704700000010024030B500210C
:100F50000022002400232D4D6D6805F00C0121B105
:100F6000042905D0082923D105E0294D056022E098
:100F7000274D05601FE0254D6D6805F47012234D67
:100F80006D6805F48034022505EB92421CB9214DB1
:100F9000554305600BE01D4D6D6805F400351DB12E
:100FA0001C4D5543056002E0194D5543056002E0B4
:100FB000174D056000BF00BF144D6D6805F0F001CE
:100FC0000909154D6B5C0568DD4045600F4D6D6886
:100FD00005F4E061090A104D6B5C4568DD408560F1
:100FE0000A4D6D6805F46051C90A0B4D6B5C45688C
:100FF000DD40C560054D6D6805F44041890B074D26
:101000006B5CC568B5FBF3F5056130BD00100240AF
:1010100000127A0000093D001F0000202F00002070
:1010200010B501210846FFF771FF01211820FFF7D5
:101030006DFF10BD1FB548208DF807001020ADF8DA
:10104000040001A91848FFF73BFC10208DF80700A9
:101050000820ADF8040003208DF8060001A912480D
:10106000FFF72EFC04210120FFF70AFC102002905C
:1010700000208DF80C000C208DF80D0001208DF85B
:101080000E0002A8FFF77CFB0A208DF8000000206C
:101090008DF8010002208DF8020001208DF8030078
:1010A0006846FFF741FD1FBD000C014008B5002157
:1010B000184800F09BF8174800F0A4F800214FF4FE
:1010C0008050FFF723FF2020ADF8000004208DF8AA
:1010D000030069461048FFF7F3FB4020ADF800001D
:1010E00069460D48FFF7ECFB8020ADF8000069462B
:1010F0000948FFF7E5FB1020ADF8000069460648F7
:10110000FFF7DEFB8020ADF8000069460348FFF7DB
:10111000D7FB08BD00300140000801400018014025
:1011200000B587B001214420FFF7F0FE012108033C
:10113000FFF7ECFE2020ADF8180003208DF81A0010
:1011400018208DF81B0006A92548FFF7B9FB802061
:10115000ADF8180006A92248FFF7B2FB4020ADF811
:10116000180004208DF81B0006A91D48FFF7A8FBF6
:101170001020ADF818008DF81B0006A91848FFF7DD
:101180009FFB8020ADF8180048208DF81B0006A9B1
:101190001448FFF795FB0020ADF804004FF482706F
:1011A000ADF806000020ADF808000220ADF80A00F6
:1011B0000120ADF80C004002ADF80E000020ADF8A3
:1011C0001000ADF812000720ADF8140001A9064880
:1011D00000F052F80121044800F008F807B000BD03
:1011E00000080140001801400030014021B1028890
:1011F00042F04002028004E002884FF6BF731A40BA
:101200000280704710B504461148844208D101217C
:101210008014FFF78BFE0021A014FFF787FE16E075
:101220000C48844208D101210014FFF75FFE002121
:101230002014FFF75BFE0AE00748844207D1012132
:10124000C013FFF753FE0021E013FFF74FFE10BD60
:101250000030014000380040003C004002460020C1
:1012600013890B400BB1012000E0002070470146BC
:10127000888970478181704710B50022028802F486
:1012800041520B884C8823438C882343CC882343CA
:101290000C8923434C8923438C892343CC892343E2
:1012A0001A430280838B4FF2FF74234083830B8A9F
:1012B000038210BD704710B500F002F810BD0000A9
:1012C0000CB50020019000903348006840F4803055
:1012D0003149086000BF3048006800F400300090D9
:1012E0000198401C0190009818B90198B0F5A06FC2
:1012F000F1D12948006800F4003010B101200090BD
:1013000001E0002000900098012843D123480068A4
:1013100040F01000214908600846006820F00300F2
:1013200008600846006840F0020008601A484068FB
:10133000194948600846406848600846406840F4DB
:10134000806048600846406820F47C104860084689
:10135000406840F4E81048600846006840F080703B
:10136000086000BF0C48006800F000700028F9D049
:101370000948406820F00300074948600846406873
:1013800040F00200486000BF0348406800F00C00D5
:101390000828F9D10CBD00000010024000200240D6
:1013A0007047000010B51348006840F00100114973
:1013B000086008464068104908400E4948600846E1
:1013C00000680E4908400B4908600846006820F490
:1013D000802008600846406820F4FE0048604FF412
:1013E0001F008860FFF767FF4FF000600449086046
:1013F00010BD0000001002400000FFF8FFFFF6FEE5
:1014000008ED00E010B50121194800F0DAF868B3E2
:101410001848006800F4004028B117480068401CD4
:101420001549086004E014480068401E124908602D
:1014300012480068002805DD10480068401E0F496A
:10144000086008E00D480068002804DA0B480068CE
:10145000401C0A4908600948006818B9002104487E
:1014600000F094F80121024800F08DF810BD000052
:10147000002C01400C0C0140980400208C0400203A
:1014800010B50121880700F09CF870B31748006878
:1014900000F0020028B116484068401C144948601A
:1014A00004E013484068401E1149486011484068F4
:1014B000002805DD0F484068401E0E49486008E0DE
:1014C0000C484068002804DA0A484068401C094972
:1014D00048600848406820B900214FF0804000F083
:1014E00055F80121880700F04EF810BD0C080140A6
:1014F000980400208C04002010B501211B4800F046
:1015000060F890B31A48006800F0200028B119482C
:101510008068401E1749886004E016488068401CB7
:101520001449886014480068401C13490860134837
:101530008068002805DD11488068401E0F498860DA
:1015400008E00E488068002804DA0C488068401CD7
:101550000A4988600948806818B90021034800F0EA
:1015600015F80121014800F00EF810BD00080040F8
:101570000C0C014098040020080000208C0400207E
:10158000CA4302827047CA430282704721B102886F
:1015900042F00102028004E002884FF6FE731A4016
:1015A0000280704731B1B0F8442042F40042A0F804
:1015B000442005E0B0F84420C2F30E02A0F8442015
:1015C000704730B50246002000230024158A05EA42
:1015D0000103958905EA010413B10CB1012000E073
:1015E000002030BD1AB183890B43838102E08389D7
:1015F0008B4383817047000070B5002400220023D4
:10160000058C4FF6FE7635400584028C8388048B6A
:101610004FF68F752C40B51E2C400D882C43751E3F
:101620002A400D892A434D882A43144DA8420BD0E5
:10163000134DA84208D0134DA84205D0124DA84220
:1016400002D0124DA84213D14FF6F7752A404D89AA
:101650002A434FF6FB752A408D882A434FF6FF65D3
:101660002B404FF6FF552B408D892B43CD892B43C3
:1016700083800483CD888586028470BD002C014060
:101680000034014000400140004401400048014056
:10169000002202881D4B98420ED01D4B98420BD061
:1016A000B0F1804F08D01B4B984205D01A4B98429E
:1016B00002D01A4B984204D14FF68F731A404B88D0
:1016C0001A43174B984207D0164B984204D04FF656
:1016D000FF431A40CB881A4302808B8883850B888E
:1016E00003850A4B98420BD0094B984208D00E4B09
:1016F000984205D00D4B984202D00D4B984201D133
:101700000B7A03860123838270470000002C01407E
:10171000003401400004004000080040000C00407C
:10172000001000400014004000400140004401400F
:101730000048014008B54FF40070ADF800001820D3
:101740008DF8030003208DF8020069460748FFF773
:10175000B7F84FF48060ADF8000004208DF8030066
:1017600069460248FFF7ACF808BD000000080140D8
:1017700010B500BF2021044800F0E2F80028F9D09D
:10178000014800F0A5F910BD003801401FB513480D
:1017900000F088F800F036F8FFF7CCFF00F020F8F2
:1017A0004FF4165000900020ADF80400ADF806008C
:1017B000ADF80800ADF80C000C20ADF80A00694641
:1017C000064800F019F9012240F22551034800F0C3
:1017D000EEF80121014800F058F81FBD0038014023
:1017E00008B54FF4E060FFF7D7F925208DF8000029
:1017F00005208DF8020001208DF803006846FFF7F0
:1018000093F908BD10B5012144F20500FFF77EFBF6
:1018100010BD000010B504462146054800F05DF9F2
:1018200000BF4021024800F08BF80028F9D010BD1D
:101830000038014010B5044603E014F8010BFFF72F
:10184000E9FF20780028F8D110BD000010B540F263
:101850002551074800F081F818B1FFF789FF0549C5
:10186000087040F22551024800F006F810BD000053
:10187000003801400D00002001F40072B2F5007F35
:1018800000D100BFCA430280704721B1828942F46F
:101890000052828104E082894DF6FF731A408281F2
:1018A0007047000010B504462048844209D1012148
:1018B0008803FFF73BFB00214FF48040FFF736FB26
:1018C00032E01B48844209D101214804FFF70EFB96
:1018D00000214FF40030FFF709FB25E01548844252
:1018E00009D101218804FFF701FB00214FF480207A
:1018F000FFF7FCFA18E01048844209D10121C8041E
:10190000FFF7F4FA00214FF40020FFF7EFFA0BE0A5
:101910000A48844208D101210805FFF7E7FA0021AF
:101920004FF48010FFF7E2FA10BD000000380140CC
:101930000044004000480040004C0040005000407F
:1019400002460020B1F5007F00D100BF13880B4094
:101950000BB1012000E00020704770B50246002462
:1019600000230025002040F66A16B14200D100BFD6
:10197000C1F3421501F01F03012606FA03F3012DFE
:1019800002D19689334006E0022D02D1168A3340F7
:1019900001E0968A33400C12012606FA04F41688F8
:1019A000344013B10CB1012000E0002070BDF0B54F
:1019B0000346002400260025002040F66A17B9429D
:1019C00000D100BF1846C1F3421401F01F060127E1
:1019D00007FA06F5012C01D10C3004E0022C01D1EC
:1019E000103000E014301AB107682F43076002E09E
:1019F0000768AF430760F0BD2DE9F04786B00546A4
:101A00000E460024A24600BFA1460027B08900B1BF
:101A100000BF2F462C8A4CF6FF700440F088044328
:101A20002C82AC894EF6F3100440B088318908430B
:101A3000718908430443AC81AC8A4FF6FF400440EF
:101A4000B0890443AC8201A8FFF780FA1F4887429F
:101A500002D1DDF810A001E0DDF80CA0A88900F4A7
:101A6000004040B10AEBCA0000EB0A10316849009F
:101A7000B0FBF1F807E00AEBCA0000EB0A1031688E
:101A80008900B0FBF1F86420B8FBF0F004012009F4
:101A9000642101FB1089A88900F4004040B1322084
:101AA00000EBC900B0FBF1F000F00700044308E0D0
:101AB000322000EB09106421B0FBF1F000F00F00C0
:101AC00004432C8106B0BDE8F087000000380140D7
:101AD00001468888C0F308007047C1F3080282807D
:101AE000704700BFFEE700BF011EA0F10100FBD15F
:101AF0007047000070B504460D46607801232A4601
:101B000004F1340100F08EFF08B1032070BD94F899
:101B1000321294F8330241EA00204AF655218842F5
:101B200001D00220F2E794F86D00010694F86C00F1
:101B300041EA004194F86B0041EA002094F86A10F1
:101B4000084320F07F400E49884201D10020DDE7A4
:101B500094F88900010694F8880041EA004194F85D
:101B6000870041EA002094F88610084320F07F4067
:101B70000349884201D10020C8E70120C6E70000E0
:101B800046415400024600E0521C107810B1107813
:101B90008842F9D1107870472DE9F74F82B002984A
:101BA000D0F800B09BF80000A0F13009B9F1090F9E
:101BB00009D89BF801003A2805D10BF1020B0298D5
:101BC000C0F800B002E0AB4890F80090B9F1000F07
:101BD00003D00B2005B0BDE8F08FA74850F829408E
:101BE000039804600CB90C20F4E7207878B1607891
:101BF00000F062FF804608F0010040B9049820B16F
:101C000008F0040008B10A20E4E70020E2E7002021
:101C1000207084F80190607800F03EFD804608F066
:101C2000010008B10320D5E7049820B108F00400B2
:101C300008B10A20CEE74FF0000A51462046FFF7D0
:101C400059FF0546012D13D104F5F977387978B19C
:101C5000F87A0106B87A41EA0041787A41EA002030
:101C6000397A40EA010A51462046FFF743FF05460C
:101C7000032D01D10120ADE745B93F20015D94F866
:101C8000400041EA0020B0F5007F01D00D20A1E71F
:101C90004A20015D94F84B0041EA002676B994F899
:101CA0005B00010694F85A0041EA004194F859009B
:101CB00041EA002094F8581040EA0106E661442009
:101CC000005DE070E07846434220015D94F84300F7
:101CD00041EA0020504460624120005DA070452030
:101CE000015D94F8460041EA002020814720015D13
:101CF00094F8480041EA00200190019870B994F8E6
:101D00005700010694F8560041EA004194F8550046
:101D100041EA002094F85410084301904220015DEC
:101D200094F8430041EA00210198401A801B218960
:101D3000A0EB1110A178B0FBF1F0801C00902062A4
:101D4000012540F6F7710098884200D302254FF62E
:101D5000F7710098884200D30325032D0FD194F822
:101D60006300010694F8620041EA004194F86100C2
:101D700041EA002094F860100843A06202E0606A23
:101D80003044A062606A3044218900EB1110E062A7
:101D90004FF0FF30206100202071032D5CD1607175
:101DA00094F8641094F8650041EA002050446061A2
:101DB0006078012304F13401626900F033FEE8BB6E
:101DC00094F8321294F8330241EA00204AF6552181
:101DD000884241D13720005D01063620005D41EA8E
:101DE00000413520005D41EA002094F8341008439A
:101DF0002249884230D194F81B02010694F81A0255
:101E000041EA004194F8190241EA002094F81812BE
:101E100008431B4988421FD194F82302010694F815
:101E2000220241EA004194F8210241EA002094F89C
:101E300020120843E06094F81F0200E00CE0010665
:101E400094F81E0241EA004194F81D0241EA002084
:101E500094F81C1208432061257000202063A061C3
:101E600008480088401C80B206490880E0800020B5
:101E7000B0E600001E000020180000205252614110
:101E8000727241611C000020012070470246891EC9
:101E9000106A801E884201D8002070479378D06A6B
:101EA00001FB0300F9E700002DE9F04705460C4669
:101EB000207800F0BF00401E00EB800101EBC0065F
:101EC00000274FF0010800BF1A48C05D205C194987
:101ED000C95D2144497840EA0129B8F1000F10D0CA
:101EE000484601F0DBF88046FF2E07DA3146761CC3
:101EF00035F8110001F0D2F8404508D00020BDE8C7
:101F0000F0874FF6FF70814501D00020F7E7781C7D
:101F100007460D28D8DB207800F0400038B1B8F132
:101F2000000F04D035F8160008B10020E7E70120C3
:101F3000E5E70000FC3B00082DE9F0470546884630
:101F4000D5F82090B8F1000F05D1EE680EB14E45DE
:101F500010D301260EE04146284601F094F90746C9
:101F6000022F02D20120BDE8F0874F4501D238464A
:101F7000F9E74646344600BF641C4C4504D30224AE
:101F8000B44201D90020EEE72146284601F07BF952
:101F9000074607B909E0781C08B1012F01D138467E
:101FA000E1E7B442E8D10020DDE700BF6FF0704206
:101FB0002146284601F0B4FB10B14FF0FF30D2E7C4
:101FC000B8F1000F08D022464146284601F0A8FB90
:101FD00010B14FF0FF30C6E7EC602869401C20B11B
:101FE0002869401E2861012068712046BBE7000077
:101FF0002DE9F34F83B081460020054680460498C2
:1020000000680190D9F81C7000BF404608F1010833
:1020100001990C5C202C03DB2F2C01D05C2C00D10F
:102020001CE0FF2D03DB062005B0BDE8F08FE4B215
:102030000121204601F00CF804460CB90620F3E714
:10204000802C06DA214684A0FFF79CFD08B106200B
:10205000EAE728466D1C27F81040D6E700BF019834
:1020600000EB080104980160202C01DA042000E054
:1020700000200646012D04D1681E37F810002E28D6
:102080000BD0022D24D1681E37F810002E281FD146
:10209000A81E37F810002E281AD1002027F81500A6
:1020A00083460AE0AB4501DA2E2000E02020D9F873
:1020B000181001F80B000BF1010BBBF10B0FF1DB5A
:1020C00046F02000D9F8181001F80B000020ABE70B
:1020D00008E0681E37F81040202C02D02E2C00D0CB
:1020E00002E06D1E002DF4D100BF0DB906209BE764
:1020F000002027F815000B222021D9F8180001F044
:1021000085FA4FF0000801E008F1010837F81800DF
:102110002028F9D037F818002E28F5D0B8F1000F94
:1021200001D046F0030600E06D1E25B1681E37F8A9
:1021300010002E28F8D14FF0000AD3460820029054
:1021400000BF404608F1010837F8104004B954E0D8
:10215000202C03D02E2C04D1A84502D046F0030633
:10216000EFE70298834501DAA84516D102980B28BB
:1021700002D146F0030640E0A84501D046F0030630
:10218000A84500DD39E0A8464FF0080B0B2002906F
:102190004FEA8A604FEA106AD3E7802C0BDB0021FC
:1021A000204600F055FF04461CB1A4F180002D49E3
:1021B0000C5C46F0020600BF24B121462AA0FFF7BE
:1021C000E1FC18B15F2446F003060FE0412C04DB6C
:1021D0005A2C02DC4AF0020A08E0612C06DB7A2C59
:1021E00004DC4AF0010AA4F1200084B258460BF145
:1021F000010BD9F818301C54A3E700BFD9F8180018
:102200000078E52803D10520D9F818100870029845
:10221000082803D14FEA8A604FEA106A0AF00C00DE
:102220000C2803D00AF00300032801D146F002066F
:1022300006F0020058B90AF00300012801D146F067
:1022400010060AF00C00042801D146F00806D9F85F
:102250001800C6720020E7E6222A3A3C3E3F7C7F07
:1022600000000000093C00082B2C3B5B3D5D00009A
:102270002DE9F04704460021204600F0BFF907464B
:1022800017B13846BDE8F0874FF0FF09CA4600BFD6
:102290002169206801F0C4F9074607B154E0656977
:1022A0002E780EB904274FE0E87A00F03F08E52EBB
:1022B00005D008F0080028B1B8F10F0F02D04FF098
:1022C000FF093AE0B8F10F0F1CD1E069A0B306F0A6
:1022D000400030B195F80DA006F0BF06B146E08889
:1022E00020844E450AD1687B504507D12946E069D4
:1022F000FFF7DAFD10B1A9F1010000E0FF2000F0C6
:10230000FF091AE0B9F1000F05D1284601F086FB5C
:10231000504500D118E04FF0FF094FF6FF702084C0
:10232000A069C07A00F0010030B90B222846A169EB
:1023300001F04CF900B907E0FFE70021204600F06A
:1023400006F80746002FA3D000BF38469AE72DE9CC
:10235000F04104468846E088401C86B20EB12069F0
:1023600010B90420BDE8F08106F00F0000286FD1FD
:102370002069401C2061E06828B920680089B042CB
:1023800066DC0420EEE720688078401E00EA161024
:1023900000285DD1E168206800F075FF0546012D39
:1023A00001D80220DEE7681C08B90120DAE72068BE
:1023B000006AA84246D8B8F1000F01D10420D1E745
:1023C000E1682068FFF7B8FD05460DB90720C9E7A9
:1023D000012D01D10220C5E7681C08B90120C1E721
:1023E0000021206801F01CF908B10120BAE721683A
:1023F00001F134004FF40072002101F007F9294681
:102400002068FFF743FD21680863002710E00120E2
:10241000216808710021206801F002F908B101204B
:10242000A0E72068006B401C21680863781CC7B2D5
:1024300020688078B842EADC2068006BC01B216805
:10244000086300BFE56029462068FFF71FFD206193
:10245000E6802068343006F00F0100EB4110606127
:1024600000207FE72DE9F04F85B00446D4F81880AE
:10247000D4F81CB00C22414601A801F0BAF89DF82E
:102480000F0000F0200018B1062005B0BDE8F08F65
:102490009DF80F0000F0010020B3002088F80B0029
:1024A000E06101270DE03B465A4601A9404600F095
:1024B000A2FE2046FFF7DCFE054605B103E0781CCE
:1024C00087B2642FEFDB00BF642F01D10720DCE768
:1024D000042D01D02846D8E79DF80F0088F80B009E
:1024E000C4F81CB09DF80F0000F0020070B1002687
:1024F00001E0701C86B23BF816000028F9D106F105
:1025000019000D2190FBF1F086B200E001260021B8
:10251000204600F073F805460DB12846B5E70020C7
:102520000746049000BF2169206801F079F805464C
:1025300005B119E0606990F80090B9F1E50F02D09B
:10254000B9F1000F08D10FB9E0880490781C80B26F
:102550000746B04201D107E0002701212046FFF7DE
:10256000F6FE0546002DDED000BF4DBB012E27DD57
:102570002046049900F042F805460DBBA06901F021
:102580004DFA0090701E86B200BF2169206801F0EC
:1025900047F8054605B112E0F2B26169E069009BB7
:1025A00000F098FD01202168087100212046FFF706
:1025B000CEFE05461DB9701E80B2061EE5D100BFD5
:1025C000D5B92169206801F02BF80546A5B9D4F8E2
:1025D00014A020220021504601F018F80B2250468A
:1025E000A16901F006F8A069C07A00F018008AF825
:1025F0000C00012021680871284646E72DE9F041CA
:1026000004460E46E680A568012D03D02068006AC6
:10261000A84202D80220BDE8F0812DB920680078D8
:10262000032801D12068856A65B9E56020680089C2
:10263000B04201DC0220EEE72068806A00EB161051
:10264000206120E020688078070112E02946206898
:1026500000F019FE0546681C08B90120DBE7022DD1
:1026600003D32068006AA84201D80220D3E7F01BF8
:1026700086B2BE42EADAE56029462068FFF706FC2A
:1026800000EB161020612068343006F00F0100EBDB
:10269000411060610020BEE7F8B507460FB1012088
:1026A000F8BD4148006800F0020010B13E480068E3
:1026B000F6E701F021F8002000F030FF0A2403E0E3
:1026C00001F0FCF8601EC4B2002CF9D100260021F4
:1026D000402001F04DF9012852D14FF4D571482026
:1026E00001F046F9012832D100BF05E001F0E6F81B
:1026F0000DF80400601CC4B2042CF7DB9DF8020046
:1027000001283DD19DF80300AA2839D100BF4FF020
:102710008041E92001F02CF90028F8D100217A202D
:1027200001F026F960BB002405E001F0C7F80DF8C0
:102730000400601CC4B2042CF7DB9DF8000000F01C
:10274000400008B10C2000E00420064618E00021FB
:10275000E92001F00DF9012802DC0226E92501E05B
:102760000126412500BF0021284601F001F900287B
:10277000F9D14FF40071502001F0FAF800B10026B1
:102780000A48067001F0A0F84EB10748006820F032
:10279000010005490860012000F0C0FE01E000F0E2
:1027A00079FF014800687BE710000020140000203A
:1027B0002DE9FF478146884614462646B9F1000FA9
:1027C00003D0042004B0BDE8F0874FF0010AB8F14F
:1027D000040F1DD1307820B101280AD0022813D16E
:1027E0000CE0FFF751FB08B100F054FF4FF0000A76
:1027F0000DE000F081FF4FF0000A08E0FFF744FB16
:1028000070704FF0000A02E04FF0040A00BF00E1D0
:102810008148006800F0010008B10320D2E7B8F158
:102820000F0F7BD2DFE808F008135359EFEFEFEFFB
:10283000EFEFAFB5C2CFE00010217848FEF714F9F2
:1028400001F076F9FF2801D14FF0000ADEE0002107
:10285000492001F08DF8C8BB1021684601F003F84B
:10286000A0B39DF800000121B1EBA01F0AD19DF893
:1028700009009DF8081000EB0120401C87B2B80247
:10288000206021E09DF8050000F00F009DF80A107F
:1028900000EBD1109DF8091001F0030100EB41009D
:1028A000851C9DF8080080119DF8071000EB810041
:1028B0009DF8061001F0030100EB8120471CA5F1F3
:1028C000090007FA00F020604FF0000A9EE04FF484
:1028D000007020804FF0000A98E05148007800F026
:1028E0000400E0B10021CD2001F042F8B8BB00F0B7
:1028F000E5FF1021684600F0B6FF80B3302503E005
:1029000000F0DCFF681EC5B2002DF9D19DF80A0069
:102910000111102088402060AA4633E073E00021B6
:10292000492001F025F8D0B91021684600F09BFF3E
:10293000A8B13B48007800F0020088B19DF80A0079
:102940008006400E9DF80B1000EBD110401C9DF846
:102950000D100122C2EBA1118840206010E011E0AF
:102960009DF80B008007C00E9DF80B1000EB511076
:10297000401C9DF80A10C1F38401491C48432060A3
:102980004FF0000A42E02648007830704FF0000A0D
:102990003CE00021492000F0EBFF30B91021304627
:1029A00000F061FF08B14FF0000A2FE000214A203B
:1029B00000F0DEFF30B91021304600F054FF08B1BE
:1029C0004FF0000A22E000217A2000F0D1FF50B938
:1029D000042505E000F072FF06F8010B681EC5B281
:1029E000002DF7D1AA4611E00021CD2000F0C0FF54
:1029F00040B900F063FF4021304600F034FF08B1D9
:102A00004FF0000A02E04FF0040A00BF00BF00F0E0
:102A10005BFF5046D6E60000100000200008014091
:102A2000140000202DE9F04107460D4616461C46CD
:102A300007B914B90420BDE8F0811D48006800F012
:102A4000010008B10320F6E71A48007800F00800FA
:102A500000B97602012C0BD13146512000F088FFDD
:102A6000F0B96102284600F0FEFEC8B1002417E06C
:102A70003146522000F07CFF90B900BF4FF4007146
:102A8000284600F0F0FE00B905E005F50075601E6F
:102A9000C0B2041EF2D100BF00214C2000F068FF3C
:102AA00000F012FF0CB10120C5E70020C3E70000D1
:102AB0001000002014000020014609B101207047D9
:102AC00001480068FBE70000100000202DE9F041FC
:102AD00007460D4616461C4607B914B90420BDE842
:102AE000F0812548006800F0010008B10320F6E7F6
:102AF0002148006800F0040008B10220EFE71F48F9
:102B0000007800F0080000B97602012C0BD13146A4
:102B1000582000F02DFF40BBFE21284601F034F87C
:102B200018B3002421E01548007800F0060018B121
:102B30002146D72000F01CFF3146592000F018FF35
:102B400098B900BFFC21284601F01EF800B905E045
:102B500005F50075601EC0B2041EF3D100BFFD2153
:102B6000002001F011F800B9012400F0ADFE0CB115
:102B70000120B4E70020B2E710000020140000207C
:102B8000002102E000224254491C425C002AF9D193
:102B9000704770B50446204600F0FDF905460DB9B2
:102BA00000202060284670BD2DE9F84306460F46F8
:102BB00090460025344616E06B46012221464046E9
:102BC00000F000F90098012802D0207800B90DE04B
:102BD00020780D2800D106E06D1C14F8011B0A298D
:102BE00000D103E000BF781EA842E5DC00BF002052
:102BF000207015B13046BDE8F8830020FBE70000E7
:102C00000246012A01DB0B207047074850F82230AA
:102C10000BB10020187009B100200870024840F87C
:102C200022100020F0E70000180000202DE9F747EF
:102C30008DB005461646DFF888A10020286006F012
:102C40001F0606F01E0204A90EA8FEF7A5FF074600
:102C50001FB1384610B0BDE8F08701A80A90CDF842
:102C60002CA004A80E9900F075FA074606F01C0087
:102C7000002868D067B1042F03D104A8FFF7F2FB46
:102C800007460FB13846E5E746F00806099C41E0E3
:102C900006F0040008B10820DCE7099C1CB1E07ACA
:102CA00000F0110008B10720D4E706F0080080B357
:102CB000A17EE07E41EA0021227D607D42EA002083
:102CC00041EA00490020207500216175A076E17677
:102CD00020776177A177E177012004990871049842
:102CE000D0F83080B9F1000F0BD04946049800F0BD
:102CF000F5FD07460FB13846ACE7A9F1010004998C
:102D0000C8604146049800F08BFC07460FB1384676
:102D1000A0E7FFE706F00800A0B10020E07200F095
:102D20003BFB804684F80E804FEA1821E1734FEA9E
:102D3000184121744FEA18616174012004990871E7
:102D400046F0200613E00FB1384683E7099C1CB11A
:102D5000E07A00F0100008B104207BE706F00200E2
:102D600028B1E07A00F0010008B1072072E704986A
:102D7000006BE86109982862AE71A17EE07E41EAAD
:102D80000021227D607D42EA002041EA0040286166
:102D9000E07F0106A07F41EA0041607F41EA002018
:102DA000217F0843E8600020A860FF20E871002030
:102DB000A861049828600498C088A880002049E78A
:102DC000A40400202DE9FF4F83B004461546994620
:102DD000DDF810A00020C9F80000A188206800F0EC
:102DE00092FE0290029818B1029807B0BDE8F08FE9
:102DF000A07900F0800008B10220F6E7A07900F089
:102E0000010008B90720F0E7D4E90210401A019048
:102E10000198854200D9019DB8E02089C0F30800DF
:102E200000287BD1E0792168897888421EDBA06880
:102E300008B9206903E06169206800F024FA83463C
:102E4000BBF1010F05D8A07940F08000A0710220ED
:102E5000CBE70BF1010028B9A07940F08000A07108
:102E60000120C2E7C4F814B00020E0716169206855
:102E7000FFF70CF806462EB9A07940F08000A0714B
:102E80000220B2E7E07906444FEA5528B8F1000F76
:102E900031D0E079404421688978884204D920689B
:102EA0008078E179A0EB010808F0FF0321684878F9
:102EB00032465146FFF7B6FD28B1A07940F08000B8
:102EC000A071012091E7A07900F0400068B1A069ED
:102ED000801B404509D2A169891B0AEB41204FF4B0
:102EE000007204F1240100F084FBE0794044E071B9
:102EF0004FEA482740E0A07900F0400098B12168EF
:102F00004878012304F12401A269FFF7DFFD30B105
:102F1000A07940F08000A071012066E719E0A07957
:102F200020F04000A071A069B0420ED0216848781E
:102F30000123324604F12401FFF774FD28B1A07982
:102F400040F08000A07101204FE7A661E079401CAD
:102F5000E0712089C0F30800C0F50077AF4200D9C6
:102F60002F462089C0F3080204F1240011183A46C4
:102F7000504600F03EFB00BFBA44A0683844A06051
:102F8000D9F800003844C9F80000ED1B002D7FF48B
:102F900044AF002029E72DE9F0410446A1882068CC
:102FA00000F0B1FD0746002F4FD1A07900F02000BE
:102FB00000284AD0A07900F0400078B12168487814
:102FC000012304F12401A269FFF780FD10B1012063
:102FD000BDE8F081A07920F04000A071E16920688F
:102FE00000F01EFB0746002F2FD1256AE87A40F03B
:102FF0002000E872207B2877A089010A6977E068C1
:10300000010CA977E068010EE977207CA876208A78
:10301000010AE9762069000C28752069010E69759E
:1030200000F0BAF90646AE75310AE975310C297619
:10303000310E6976A07920F02000A071012021686E
:103040000871206800F0FAFC07463846C0E7000027
:1030500010B50246802A01DA10461BE051B1FF2A62
:1030600001DD002304E0A2F180030B4C34F813309F
:1030700018460FE0002007E0074B33F8103093426A
:1030800000D103E0431C98B28028F5DB00BF00F1BB
:103090008003D8B210BD0000CE3C000802460021DB
:1030A00000E0491C094830F8110020B1074830F809
:1030B00011009042F5D1054830F8110018B10448CC
:1030C00030F8110070471046FCE70000CE3D0008C4
:1030D000AE3F0008F0B504461D464D730F27CF7272
:1030E00000270F738F76BC4681F81BC0571E07EB75
:1030F000870C0CEBC706002738463B4600BF4FF64F
:10310000FF77B84203D03746761C34F81700DFF853
:1031100040C01CF803C001F80C000712DFF830C0F3
:103120001CF803C08C448CF8017008B94FF6FF708E
:103130005F1C3B460D2FE2DB4FF6FF77B84202D013
:1031400034F816700FB942F040020A70F0BD00006A
:10315000FC3B00082DE9F341044600BF00BF019885
:1031600000782F2803D0019800785C2805D10198B9
:10317000401C01900020A06002E020688069A060EF
:1031800001980078202807D200212046FFF736FA60
:103190000646002060612BE000BF01A92046FEF733
:1031A00027FF064606B122E02046FFF761F80646F3
:1031B000A069C07A00F0040726B1042E01D107B936
:1031C000052614E007B112E06569E87A00F0100006
:1031D00008B905260BE0A97EE87E41EA00212A7D98
:1031E000687D42EA002041EA0040A060D5E700BFC8
:1031F0003046BDE8FC812DE9FC47804689461746EC
:103200001C460B224946404600F0F3F9052C0ADD26
:1032100000BF601000EBC43137F8022B881884B26D
:1032200038880028F5D1072500BF0A2094FBF0F16B
:1032300000FB11403030C2B228466D1E0DF8002050
:103240000A2094FBF0F084B2002CEED17E200DF821
:103250000500002600E0761CAE4203DA18F80600EE
:103260002028F8D100BF082D04DA28466D1C1DF86F
:10327000000000E020203146761C08F80100082EEE
:10328000F1DBBDE8FC872DE9F04105460C46022C38
:1032900002D3286AA04202D80120BDE8F0816F6AFB
:1032A0002878012804D002282AD0032870D140E0D1
:1032B000264606EB560607EB5621284600F0B0F9E5
:1032C00000B165E0C6F3080105F1340010F8018093
:1032D000761C07EB5621284600F0A2F900B157E012
:1032E000C6F3080105F13400405C48EA002804F008
:1032F000010010B14FEA1810CFE7C8F30B00CCE77C
:1033000007EB1421284600F08BF900B140E040F2B1
:10331000FF1000EA440105F13400415C40F2FF1067
:1033200000EA440205F134001044407841EA0020EC
:10333000B3E707EBD411284600F072F900B127E09B
:1033400040F2FF1000EA840105F134000844C0781F
:10335000010640F2FF1000EA840205F13400104437
:10336000807841EA004140F2FF1000EA840205F152
:1033700034001044407841EA002040F2FF1101EA95
:10338000840205F13401895C084320F0704084E731
:1033900000BF4FF0FF3080E70CB5684600F01AF828
:1033A000BDF80000A0F2BC7040069DF8021040EA93
:1033B00041509DF8031040EA01409DF8051040EA95
:1033C000C1209DF8061040EA41109DF8071040EA20
:1033D00051000CBD01460A20C871322088710A20B4
:1033E0004871022008711E20C8700B20887040F2BE
:1033F000D9700880012070470021C16001604160E0
:103400008160016170470022C26002604260816099
:103410000261704730B5039CC16002604360846004
:103420000025056130BD2DE9F0418AB080460D468A
:10343000002400260027142105A8FCF7F7FE6846A3
:10344000FFF7DAFF08E0285D3038049901EB8101CD
:1034500000EB41000490641C285D2028F3D1641C1B
:10346000601C295C285D303800EB800001EB4000D7
:1034700030380390E41C2BE0285D2D2805D0285D12
:10348000302805DB285D392802DC285D05A9885530
:10349000601C285C59280AD0601C285C5A2806D079
:1034A000601C285C18B1601C285C2E280BD105A874
:1034B00000F019F84DF827007F1C0026641C05A8B1
:1034C000FFF75EFB00E0761C285D2E2800D0641C10
:1034D000285D2E28D0D1142269464046FCF774FEA0
:1034E0000AB0BDE8F08130B5014600220124002376
:1034F0000DE0885C2D2802D14FF0FF3406E0885C97
:1035000003EB830500EB4500A0F13003521C885CFF
:103510000028EED104FB03F030BD00000146064A4E
:10352000108811B940F0380003E020F0380242F072
:103530000800014B188070470030014006480068C1
:1035400038B90548406820B90348806808B90120A7
:1035500070470020FCE700008C04002010B5002418
:10356000FDF758F9FDF7BAFBFDF7D2FAFEF70EF9B1
:103570000BA0FEF75FF901E0FCF776FF0B4800783F
:103580006728F9D10AA0FEF755F9FCF7BDFF0B48F3
:10359000FFF7FFFA0AA0FEF74DF9002010BD00006A
:1035A0000A2048414E444A4F420000000D000020CE
:1035B0000A204D4154554D42410000006802002050
:1035C0000A20446F6E65212121000000F0B50346FA
:1035D0001C460D46002000BF161EA2F1010207D0B6
:1035E00014F8017B15F801CBA7EB0C06301EF3D0C5
:1035F000F0BD70B503460C4603E014F8015B03F818
:10360000015B151EA2F10102F7D170BD30B5034672
:1036100001E003F8011B141EA2F10102F9D130BD33
:103620002DE9F04104460D46266BAE422FD020799D
:1036300008B360780123324604F13401FFF746FAFB
:1036400010B10120BDE8F08100202071E169606ABD
:103650000844B0420FD9E7780AE0E0690644607890
:103660000123324604F13401FFF730FA781EC7B265
:10367000012FF2DC00BF55B1607801232A4604F126
:103680003401FFF7CFF908B10120DBE72563002003
:10369000D8E7000008B51548006800F0010038B907
:1036A00010211348FDF7E0F900F042FA00F00CF9A0
:1036B00000211048FDF79AFD0E48FDF7A3FD0021FB
:1036C0004FF48050FDF702FCE020ADF80000282008
:1036D0008DF8030069460648FDF7F2F803480068D4
:1036E00040F001000149086008BD00001000002002
:1036F000000801400030014008B5FDF7D7FCFDF798
:103700000FFD00BF02210548FDF7A8FD0028F9D0F4
:103710000248FDF7ACFDC0B2009008BD003001408A
:103720002DE9F04705460C461646022C02D3286ABE
:10373000A04201D8022793E0D5F824A028780128D8
:1037400004D0022841D003287DD157E0A04608EBE1
:1037500058080AEB58212846FFF762FF074607B1D1
:103760007BE0C8F3080105F1340001EB000904F027
:10377000010028B1F1B299F8000061F31F1000E0D8
:10378000304689F8000008F10108012028710AEB91
:1037900058212846FFF744FF074607B15DE0C8F30C
:1037A000080105F1340001EB000904F0010010B13B
:1037B000C6F3071006E099F8000000F0F000C6F329
:1037C0000321084389F8000047E00AEB142128464A
:1037D000FFF726FF074607B13FE040F2FF1000EA7F
:1037E000440205F134008654310A40F2FF1000EA29
:1037F000440205F13400104441702EE00AEBD4116C
:103800002846FFF70DFF074607B126E040F2FF10FC
:1038100000EA840205F134008654310A40F2FF10B8
:1038200000EA840205F1340010444170310C40F28A
:10383000FF1000EA840205F1340010448170310E5B
:1038400040F2FF1000E006E000EA840205F13400D7
:103850001044C17001E0022700BF00BF01202871A1
:103860003846BDE8F08770B504460E4600BF00F04C
:1038700025F80546FF2DFAD0FE2D01D0002070BDA1
:1038800000BFFF2000F05EF804F8010BFF2000F0FD
:1038900059F804F8010BFF2000F054F804F8010B6C
:1038A000FF2000F04FF804F8010B301F061EE8D18E
:1038B00000F004F800F002F80120E0E710B5FF2066
:1038C00000F040F810BD000010B510210248FDF7CF
:1038D000DDF8FFF7F3FF10BD000801402DE9F041CE
:1038E00004460E46022E02D3206AB04201D80227B7
:1038F00025E000271FE031462046FFF7C4FC0546BF
:1039000005B91BE0012D01D1022717E0681C08B999
:10391000012713E0002231462046FFF701FF07464A
:1039200007B10BE02069401C20B12069401C2061D8
:10393000012060712E46206AB042DCD800BF3846B4
:10394000BDE8F08170B50446002521460748FDF723
:1039500091FC00BF01210548FDF780FC0028F9D04B
:103960000248FDF784FCC5B2284670BD0030014016
:103970002DE9F04104460D4604F0800058B104F0F2
:103980007F0400217720FFF7F3FF0646012E02DDBA
:103990003046BDE8F08110211C48FDF777F8102172
:1039A0001A48FDF761F800F0C3F8FF2801D0FF20A6
:1039B000EFE72046FFF7C6FF280EFFF7C3FFC5F36A
:1039C0000740FFF7BFFFC5F30720FFF7BBFFE8B2D3
:1039D000FFF7B8FF0127402C00D19527482C00D1D4
:1039E00087273846FFF7AEFF4C2C01D1FFF766FF63
:1039F0000A2700BFFFF762FF064606F0800018B1F5
:103A0000781EC0B2071EF5D13046C2E7000801405B
:103A1000014A42F8201070478C04002030B501465E
:103A200000200B2200BF431003EBC01411F8015B10
:103A30006319D8B2531E1A1EF5D130BD70B50446B5
:103A400000212046FFF7ECFD0546002D59D12078D6
:103A500003284FD1607900284CD0002020634FF418
:103A60000072002104F13400FFF7D0FD552184F8E5
:103A70003212AA2184F83312522084F834005221E1
:103A8000352001556121362001554121372001554E
:103A9000722184F8181284F81912412184F81A123C
:103AA000612184F81B12217C84F81C12208A010AEF
:103AB00084F81D122069010C84F81E122069010E81
:103AC00084F81F12217B84F82012A089010A84F84F
:103AD0002112E068010C84F82212E068010E84F8DB
:103AE00023126078012304F134016269FEF7EEFFCE
:103AF00000206071607800221146FEF759FE00B187
:103B00000125284670BD70B504460D4624B12078C5
:103B100010B1E088A84201D0092070BD6078FEF79E
:103B2000CBFF00F0010008B10320F6E70020F4E726
:103B300010B5FFF7C3FE00BFFFF7C0FE0446FF2C21
:103B4000FAD1204610BD000000B514E00B48006813
:103B5000012121EAD03048B90948FDF7C4FF0748E0
:103B60000068012121EAD03000B105E00548007865
:103B7000672800D100E0E9E700BF00BD0808014068
:103B800000F915000D0000202DE9F04104460D4616
:103B9000FFF7CEFFFF2802D00020BDE8F0812846C5
:103BA000FFF7D0FEFD2D1CD0002700BF14F8010B3D
:103BB000FFF7C8FE14F8010BFFF7C4FE781EC0B271
:103BC000071EF3D1FF20FFF7BDFEFF20FFF7BAFE6F
:103BD000FFF774FE064606F01F00052801D00020FE
:103BE000DBE70120D9E70000002002490870024904
:103BF000086070470C000020080000200103050742
:103C0000090E10121416181C1E808182838485866A
:103C10008788898A8B8C8D8E8F90919293949596BC
:103C20009798999A9BAC9D9E9FA021A2A3A4A5A61C
:103C3000A7A8A9AAABACADAEAFB0B1B2B3B4B5B69C
:103C4000B7B8B9BABBBCBDBEBFC0C1C2C3C4C5C68C
:103C5000C7C8C9CACBCCCDCECFD0D1D2D3D4D5D67C
:103C6000D7D8D9DADBDCDDDEDFC0C1C2C3C4C5C64C
:103C7000C7C8C9CACBECCDCECFD0D1F2D3D4D5D61C
:103C8000F7D8D9DADBDCDDFE9F00000000401F0022
:103C900000A00F0000D0070000E8030000F40100BE
:103CA00000FA0000007D0000803E0000401F000080
:103CB000A00F000000000000008000400020001065
:103CC0000008004000200010000800040002AC20A2
:103CD00000001A2092011E20262020202120C6024A
:103CE00030200000392052010000000000000000D8
:103CF000182019201C201D20222013201420DC0253
:103D0000222100003A205301000000007801A000A9
:103D1000A100A200A300A400A500A600A700A8007F
:103D2000A900AA00AB00AC00AD00AE00AF00B0002F
:103D3000B100B200B300B400B500B600B700B800DF
:103D4000B900BA00BB00BC00BD00BE00BF00C0008F
:103D5000C100C2000201C400C500C600C700C800FF
:103D6000C900CA00CB000003CD00CE00CF00100177
:103D7000D1000903D300D400A001D600D700D80099
:103D8000D900DA00DB00DC00AF010303DF00E00054
:103D9000E100E2000301E400E500E600E700E800DE
:103DA000E900EA00EB000103ED00EE00EF00110175
:103DB000F1002303F300F400A101F600F700F8007E
:103DC000F900FA00FB00FC00B001AB20FF0061002D
:103DD00062006300640065006600670068006900B7
:103DE0006A006B006C006D006E006F007000710067
:103DF0007200730074007500760077007800790017
:103E00007A00A100A200A300A500AC00AF00E00072
:103E1000E100E200E300E400E500E600E700E8007E
:103E2000E900EA00EB00EC00ED00EE00EF00F0002E
:103E3000F100F200F300F400F500F600F800F900DC
:103E4000FA00FB00FC00FD00FE00FF000101030181
:103E50000501070109010B010D010F0111011301FA
:103E60001501170119011B011D011F01210123016A
:103E70002501270129012B012D012F0131013301DA
:103E8000350137013A013C013E0140014201440144
:103E9000460148014B014D014F01510153015501AC
:103EA000570159015B015D015F016101630165011A
:103EB000670169016B016D016F017101730175018A
:103EC00077017A017C017E019201B103B203B30351
:103ED000B403B503B603B703B803B903BA03BB030E
:103EE000BC03BD03BE03BF03C003C103C303C403BC
:103EF000C503C603C703C803C903CA03300431049A
:103F000032043304340435043604370438043904E5
:103F10003A043B043C043D043E043F044004410495
:103F20004204430444044504460447044804490445
:103F30004A044B044C044D044E044F0451045204F3
:103F400053045404550456045704580459045A049D
:103F50005B045C045E045F04702171217221732193
:103F60007421752176217721782179217A217B218D
:103F70007C217D217E217F2141FF42FF43FF44FFC1
:103F800045FF46FF47FF48FF49FF4AFF4BFF4CFFF5
:103F90004DFF4EFF4FFF50FF51FF52FF53FF54FFA5
:103FA00055FF56FF57FF58FF59FF5AFF00004100C9
:103FB00042004300440045004600470048004900D5
:103FC0004A004B004C004D004E004F005000510085
:103FD0005200530054005500560057005800590035
:103FE0005A002100E0FFE1FFE5FFE2FFE3FFC00030
:103FF000C100C200C300C400C500C600C700C8009D
:10400000C900CA00CB00CC00CD00CE00CF00D0004C
:10401000D100D200D300D400D500D600D800D900FA
:10402000DA00DB00DC00DD00DE00780100010201C7
:104030000401060108010A010C010E011001120120
:104040001401160118011A011C011E012001220190
:104050002401260128012A012C012E013001320100
:104060003401360139013B013D013F01410143016A
:10407000450147014A014C014E01500152015401D2
:10408000560158015A015C015E0160016201640140
:10409000660168016A016C016E01700172017401B0
:1040A000760179017B017D019101910392039303D4
:1040B0009403950396039703980399039A039B032C
:1040C0009C039D039E039F03A003A103A303A403DA
:1040D000A503A603A703A803A903AA0310041104B8
:1040E0001204130414041504160417041804190404
:1040F0001A041B041C041D041E041F0420042104B4
:104100002204230424042504260427042804290463
:104110002A042B042C042D042E042F040104020471
:1041200003040404050406040704080409040A043B
:104130000B040C040E040F04602161216221632131
:104140006421652166216721682169216A216B212B
:104150006C216D216E216F2121FF22FF23FF24FF9F
:1041600025FF26FF27FF28FF29FF2AFF2BFF2CFF13
:104170002DFF2EFF2FFF30FF31FF32FF33FF34FFC3
:1041800035FF36FF37FF38FF39FF3AFF00000000E8
:10419000B0410008000000203400000028010008A1
:1041A000E441000834000020D41600004401000857
:1041B00000000000FEFFFFFF000000000000000004
:1041C00001000000000000000000000000000000EE
:1041D00000000001020304010203040607080902AB
:0441E00004060800C9
:04000005080000ED02
:00000001FF
